:020000000C945E
:100002007E000C9400000C9400000C9400000C94F0
:1000120000000C9400000C9400000C9400000C945E
:1000220000000C9400000C9400000C9400000C944E
:1000320000000C9400000C9400000C9400000C943E
:1000420000000C9400000C9400000C9400000C942E
:1000520000001027E80364000A00010000100001FC
:1000620010000100203A206F626A656374206F7588
:100072007420726561647920746F2073656C6563A6
:10008200742E2000000000000000000000000000AC
:10009200000000000000203A206F626A656374204D
:1000A200726561647920746F206361707475726522
:1000B2002E200000000000000000000000000000F0
:1000C2000000000000000000203A206F626A6563B1
:1000D2007420696E2E200000000000000000000065
:1000E200000000000000000000000000000000000E
:1000F20000000000000000000000F894EE27ECBBB6
:10010200F1E0FBBFEBBFE5BFF8E1F1BDE1BD8DE082
:10011200A2E0BB27ED938A95E9F780E094E0A0E6A0
:10012200ED930197E9F7EFE5EDBFE4E0EEBFC0E63E
:10013200D1E00C949C00EF97EF97689786E9A0E0D6
:10014200B0E0E6E6F0E00E94D202E0E0EBBBEFEFC7
:10015200EABBE0E0E8BBE7BBE5BBE4BBE2BBE1BB7B
:10016200E3BFE2BFECBFEFBDEEBDEDBDECBDE7BD51
:10017200E6BDEBBDEABDE9BDE8BDE2BDE5BDE4BD5E
:10018200E3BDE5BFE4BFE9BFEBB9E8E1EAB9E6E800
:10019200E0BDE0E0E0BDE9E1E9B9E0E8E8B9E0E0CE
:1001A200E0BFB09903C0A3D093D090C0A0E0B099B3
:1001B200A1E0A13011F00C94670199D0A0E0B399AD
:1001C200A1E0A03051F4A0E0B299A1E0A13029F45D
:1001D200A0E0B199A1E0A13009F077C011E61A932D
:1001E200BCD1FE01EC59FF4FFA93EA930E94B4028C
:1001F200A0E0B399A1E0A13051F4A0E0B299A1E04E
:10020200A03029F4A0E0B199A1E0A13011F084D18D
:10021200EFCF12E61A93A1D1FE01F296FA93EA9376
:100222000E94B4025BD0A0E0B399A1E0A13051F4E6
:10023200A0E0B299A1E0A13029F4A0E0B199A1E037
:10024200A03011F069D1EFCF13E61A9386D1FE01E7
:10025200FA93EA930E94B40241D0A0E0B399A1E0DC
:10026200A13051F4A0E0B299A1E0A13029F4A0E0BC
:10027200B199A1E0A130A9F02297E0E0E883E983F7
:10028200A881B981A53FE1E0BE074CF445D1B09BFE
:1002920006C0E881F9813196E883F983F1CF22968D
:1002A200DCCFA0E0B399A1E0A03051F4A0E0B29974
:1002B200A1E0A13029F4A0E0B199A1E0A13021F0A0
:1002C2000DD0B09B01C0EDCF01C011D06ACFFFCFDE
:1002D2000ED00ED066D0BED0ECD00895E0E0EBBBDD
:1002E200E8EBFBE0FA93EA930E94C602089511C17B
:1002F200A0E0B799A1E0A13011F00C94D101DB98F4
:10030200DA98D998D89AEAE0F0E0FA93EA930E9450
:10031200C602DB98DA98D99AD89AEAE0F0E0FA9322
:10032200EA930E94C602DB98DA98D99AD898EAE052
:10033200F0E0FA93EA930E94C602DB98DA9AD99A1D
:10034200D898EAE0F0E0FA93EA930E94C602DB98BA
:10035200DA9AD998D898EAE0F0E0FA93EA930E9400
:10036200C602DB9ADA9AD998D898EAE0F0E0FA93D2
:10037200EA930E94C602DB9ADA98D998D898EAE002
:10038200F0E0FA93EA930E94C602DB9ADA98D998CF
:10039200D89AEAE0F0E0FA93EA930E94C602A8CF64
:1003A2000895A0E0B699A1E0A13011F00C942A02C0
:1003B200DB9ADA98D998D89AEAE0F0E0FA93EA93CD
:1003C2000E94C602DB9ADA98D998D898EAE0F0E05F
:1003D200FA93EA930E94C602DB9ADA9AD998D898DD
:1003E200EAE0F0E0FA93EA930E94C602DB98DA9A16
:1003F200D998D898EAE0F0E0FA93EA930E94C6020C
:10040200DB98DA9AD99AD898EAE0F0E0FA93EA937C
:100412000E94C602DB98DA98D99AD898EAE0F0E00E
:10042200FA93EA930E94C602DB98DA98D99AD89A8C
:10043200EAE0F0E0FA93EA930E94C602DB98DA98C7
:10044200D998D89AEAE0F0E0FA93EA930E94C602B9
:10045200A8CF0895A0E0B599A1E0A13049F5DF98B1
:10046200DE98DD98DC9AE1E0F0E0FA93EA930E94EC
:10047200C602DF98DE98DD9ADC98E1E0F0E0FA93BC
:10048200EA930E94C602DF98DE9ADD98DC98E1E0EA
:10049200F0E0FA93EA930E94C602DF9ADE98DD98B2
:1004A200DC98E1E0F0E0FA93EA930E94C602D2CF30
:1004B2000895E0E0EBBBA0E0B499A1E0A13049F5DA
:1004C200DF9ADE98DD98DC98E1E0F0E0FA93EA93B7
:1004D2000E94C602DF98DE9ADD98DC98E1E0F0E047
:1004E200FA93EA930E94C602DF98DE98DD9ADC98BE
:1004F200E1E0F0E0FA93EA930E94C602DF98DE9808
:10050200DD98DC9AE1E0F0E0FA93EA930E94C602F9
:10051200D2CFE0E0EBBB0895DF98DE98DD98DC9A5D
:1005220088EE93E00197F1F7DF98DE98DD9ADC9888
:1005320088EE93E00197F1F7DF98DE9ADD98DC9878
:1005420088EE93E00197F1F7DF9ADE98DD98DC9868
:1005520088EE93E00197F1F708955D9BFECFE88165
:10056200ECB9219608951A93A981BA81ED91A983D4
:10057200BA831E2FE03019F01A93EFDFF5CFEAE0CD
:10058200EA93EBDF188123960895E991F991309669
:1005920039F088EE93E00197F1F7A8953197C9F702
:1005A2000895AC0FBD1F05900D928A95E1F708954D
:00000001FF
